:200000005C400020B983000001CA011001CA011001CA011001CA011001CA011001CA0110C0
:1C00200001CA011001CA011001CA011001CA011001CA011001CA01103FCA011082
:20003C0000008001100082FFFDFF58003AFFBFF3FFFFFFFFFFFFFFFFFFFFFFFFFFFFFFFF63
:20005C00FFFFFFFFFFFFFFFFFFFFFFFFFFFFFFFFFFFFFFC5FFFFFFFFC5FFFFFFC5C5C5FFC6
:18007C00C5C5C5FF00000000FFFFFFFFFFFFFFFFFFFFFFFFFFFFFFFF2E
:200100003C000000000000000000000034010000000000000000000001000000000000006D
:1C01200000000000000000000000000001000000000000000800000000000000BA
:20013C00340000000000000000000000680100000000000000000000010000000000000005
:14015C00010000000000000000000000080000000000000086
:2001700030000000000000000000000098010000040000000000000001000000FFFFFFFFA5
:10019000FF00000001000000080000000000000057
:2001A0002C0000000000000000000000C4010000040000000000000001000000FFFFFFFF4D
:0C01C000FFFFFFFF08000000000000002F
:2001CC0034050000E401000099A1011095A70110A5C2011009B2011045B80110000000000B
:0801EC00000000002E000000DD
:2001F400280000000000000000000000140200000000000000000000FFFFFFFF00000000B1
:080214000800000000000000DA
:20021C00300500003002000069C201106DC101101FC2011095BA011000000000000000008E
:04023C00300000008E
:20024000300500005402000075C20110A9B601109DBF011049B601100000000000000000DE
:040260003100000069
:200264002400000000000000000000008002000000000000000000000000000008000000CC
:040284000000000076
:20028800240000000000000000000000A40200000000000000000000000000000800000084
:0402A8000000000052
:2002AC00240000000000000000000000C8020000000000000100000000000000080000003B
:0402CC00000000002E
:2002D00000000000F018002004000000000000000000000020000000700100003000000021
:2002F0001C020000041900200400000000000000000000000C000000300400001800000037
:200310004002000010190020040000000000000000000000240000004804000018000000B6
:20033000000000001819002004000000000000000000000010000000A00100002C0000007B
:20035000CC01000020190020040000000000000000000000200000006402000024000000B9
:20037000FFFFFFFF401900200400000000000000000000002800000088020000240000001E
:20039000FFFFFFFF50190020040000000000000000000000580000003C01000034000000FB
:2003B000FFFFFFFF5819002004000000000000000000000010000000600400001800000010
:2003D000FFFFFFFF601900200400000000000000000000001C000000AC0200002400000086
:2003F000FFFFFFFF6819002004000000000000000000000038000000F401000028000000F7
:20041000FFFFFFFF7019002004000000000000000000000054000000000100003C00000092
:1804300018000000000000000000000040040000080000000000000050
:1804480018000000000000000000000058040000080000000000000020
:18046000180000000000000000000000700400000800000000000000F0
:08047800010000008CB6000039
:040484000100000073
:0404880000000C0064
:04048C0000000D005F
:040490003200000036
:040494000200000062
:04049800F821002027
:04049C00000200005A
:0404A0000000000058
:0404A40001CA011078
:0404A8000000000050
:0404AC00000000004C
:0404B0000800000040
:0404B4000000200024
:0404B80028210020D7
:0404BC00010000003B
:0404C00028190020D7
:0404C400080000002C
:0404C8000000000030
:0404CC00000000002C
:0404D0000000000028
:0404D4000000000024
:0404D8000000000020
:0404DC00010000001B
:0404E000582200207E
:0404E400060000000E
:0404E800010000000F
:0404EC004C20002080
:0404F0000000000008
:0404F4000000000004
:0404F80000020000FE
:0404FC0000000000FC
:020502002A00CD
:020504000100F4
:020506002500CE
:020508003000C1
:02050A003100BE
:02050C002E00BF
:02050E000100EA
:0105100001E9
:080514000300000044B60000E2
:08051C000000000000000000D7
:0405240000000100D2
:0405280000000300CC
:04052C0087C401106F
:04053000380500008A
:040534003805000086
:0405380000000000BF
:04053C00800000003B
:040540008000000037
:0405440000000000B3
:04054800281900204E
:04054C00FFA9000003
:040550002000000087
:0405540000B60000ED
:0405580034B40000B7
:04055C000DC30110BA
:04056000FF66000032
:040564006F6B0000B9
:0405680099C801101D
:04056C009BC8011017
:040570000000000087
:040574006BB6000062
:040578008CB1000042
:04057C00A4B1000026
:0405800074B1000052
:0205840008006D
:0205860009006A
:02058800010070
:02058A0000006F
:01058C00016D
:040590000000000067
:040594000000000063
:04059800000000005F
:04059C00000000005B
:0405A0009DA7000013
:0405A4005588000076
:0405A800959F00001B
:0405AC00C9840000FE
:0405B000496F00008F
:0405B4005992000058
:0405B8009D5A000048
:0405BC0025A3000073
:0405C000F9730000CB
:0405C40011C8011049
:0405C80021C8011035
:0405CC000800000023
:0405D0002400000003
:0405D400180000000B
:0405D80028000000F7
:0405DC0020000000FB
:0405E0003C000000DB
:0405E4000C00000007
:0405E80034000000DB
:2005EC002DE9F04FADF17C0D05F02EFE7E4C04F1340004F19C0105F065F8DFF8149360613C
:20060C0049460AF029FBDFF80C830821D8F80000ADF8641001460120ADF8660019A88847A6
:20062C00BDF8680060811B98206104F140000AF099FA002604F1B805DFF888A3A0614FF49C
:20064C007A7233460420009651460190284607F005F8374604F1DC064FF4FA72102000971B
:20066C00514613460190304606F0F8FF1F20012108F0A8FE01208DF808000820ADF80A7096
:20068C0001218DF80C7002AAADF80E004FF44870ADF810003846ADF812006420ADF81400AA
:2006AC0040F2053001F028FB40F2063002210DF10A0201F021FB04F17E074FF442701B2166
:2006CC003A4601F019FB1D951C9604F16A0240F20730142101F010FB4FF44470012103AA64
:2006EC0001F00AFB40F2113002210DF10E0201F003FB40F21230022104AA01F0FDFA40F206
:20070C00133002210DF1120201F0F6FA4FF44570022105AA01F0F0FADB4D0020152105F15B
:20072C0049020AF0A3F804F124000AF04BFA0620A02108F047FE0720A02108F043FE082008
:20074C00A02108F03FFE143F1E970920A02108F039FE4FF0FF300AF02EFB4FF0FF300AF07D
:20076C0027FB0AF079F805F113020120112102F00BFCAE1C02200521324602F005FC0520E7
:20078C003246014602F000FC05F136020320132102F0FAFBEA1D04200C2102F0F5FB05F104
:2007AC0024020620122102F0EFFB7F2004F042F97F2814BF06200F20052107F0CFFB07F057
:2007CC00AFFD002854D107F015FC5FEA00094FD0002528464FF4805106F050FB05F58055E4
:2007EC00E80CF6D000263CE02005002006F500304FF4805106F042FB5FEA00092FD004F5F0
:20080C00A87B37460025584639464FF4807204F0DDFDA81900F5003A4FF480715A4650468D
:20082C0005F0D8FC5FEA000913D050464FF480715A4607F0B8F9B8789BF802104FF000097F
:20084C00884206D1F8789BF80310884208BF4FF0010905F5807507F58077280BD3D006F548
:20086C008056700C08BFB9F1010FBFD007F0C0FD06F0D4FA07F04CFB0AF020F909F0E2FB6B
:20088C0006F006FA0AF042F806F098FA04F12C000AF00CF904F14C000AF064F9E06104F1AC
:2008AC00200008F075FD002009F076F9606918490AF0D2F91C980AF0BBFA0120724F8DF861
:2008CC001600388801210DF11602ADF86000084605F010FF022118AA012005F041FC03204C
:2008EC0009F0B2FA2169021C08D0022010700527577001269670A06907F032F8032009F0BF
:20090C00A3FA21694FF005090246022062B103E075A60000DC17002010700420507001273D
:20092C009770A06907F01CF8BE480068002541F28831AA46B1FBF0FB08200A21ADF858003A
:20094C004FF0FF36ADF85A10D8F80070179616A839468847002840F005810821ADF848100B
:20096C000927CDF818A0D8F80000ADF84A70014612A88847149E0028069640F0E780BDF8FD
:20098C004C0010280CD16089BDF84E10884207D130460178B02903D10179083009F052FDB6
:2009AC000698002800F0D2800820ADF840000321ADF84210D8F80070119610A8394688470E
:2009CC00C4E0C0468DA60000A06909F061FC071C00F0BC803E78781C761E2FD0761E40F0DF
:2009EC00AA800078B978401E24D0401E1ED0801E18D0401E12D0401E0CD0401E06D0801EA8
:200A0C0040F09980084607F0A5F894E0084603F0B3FF90E0084604F09BFE8CE0084605F03E
:200A2C00FFF888E0084603F047FF84E0084604F0FFFD80E0084605F0B1F87CE00678701E6E
:200A4C0052D0401E22D0801E012840D9801E02D0801E2AD06EE01D980AF038F810B91D9885
:200A6C000AF0E6F9606906212A4608F083FA60690F212A4608F07EFA606915212A4608F07C
:200A8C0079FA05F0F5FC55E074B000001D980AF01DF810B91D980AF0CBF91E9A40F2073077
:200AAC001421557301F028F944E009F0EFFA09F0B7FA09F005FA09F0DDF808F093FA06F02A
:200ACC0025FF60690621012208F054FA32E009F0DDFA09F0A5FA09F0F3F909F0CBF808F07A
:200AEC0081FA06F013FF25E04FF441700EA902F07BF89DF839308DF831308DF834508DF8E0
:200B0C0033509DF83D108DF837109DF83A208DF832209DF83C309DF838008DF836309DF884
:200B2C003B308DF8300008210CAA28468DF8353002F02AFA26700820ADF82800ADF82A9052
:200B4C00D8F800600B9731460AA88847A0690AF029FA00283FF438AF04F0DEF809F084FA16
:200B6C0002F09EFAA0892178C20805D2410924BF20F01000A08130E020F004000629A0819A
:200B8C0018BF022903D11D980AF052F92178062905D1284629462A4608F06EFE2178022966
:200BAC001BD12E4611E060690F21012208F0E2F958460AF0F3F960690F212A4608F0DAF931
:200BCC0058460AF0EBF9761CF6B2002EEBD006200A2107F0C3F904F005FAE0690AF0E2F955
:200BEC0000287FF4A9AEE0690AF0D4F90646307A012806D0022808D17089F16801F052FF5B
:200C0C0003E07089F16803F033F80820ADF82000ADF82290D8F800700996394608A8884754
:200C2C00DBE7C04688B600002DE9F04F064640F29421012541F22D00ADF10C0DC4F22231D4
:200C4C00C4F2090040F81D5C08680028FCD043F6AC7E46F2440AC020C5F2000EC4F20C0A5A
:200C6C00F4464AF8440CDEF80890DCF8041046F25620C4F20800890807D271460A686FF0E8
:200C8C000F0E4EEA1241017001E07221017041F28C38C5F2000858F8D41CC1F304611629FC
:200CAC00A8BF20396246926812175118491C11F10A0FB8BF6FF0090100232C4625EAD962F5
:200CCC0001F01F01C4F2203341F4F851018324EA996E1A60002EC3F808E073D058F83C1CA1
:200CEC00C1F38360C1F38F275FEA994167D249F3072CBCF1000F29D549F307214A42B1F1D0
:200D0C00FF3F4FEA620215DA7F0805D1400806BF281C2F1C4FF6FF777F080CF1010C05D1E2
:200D2C00400806BF281C2F1C4FF6FF77521E0CF1010CE9D1490809D37F0805D1400806BF85
:200D4C00281C2F1C4FF6FF770CF1010CBCF1000F35DDBCF1020F4FEA6C020CF001031DDB08
:200D6C004FF6FF717F0047F00107B94207D2400040F001000F2892BF2F1C0F200F1C7F0003
:200D8C0047F00107B94207D2400040F001000F2892BF2F1C0F200F1C521EE3D1002B0EDD5C
:200DAC007F004FF6FF7147F00107B94207D2400040F001000F2892BF2F1C0F200F1C47EA11
:200DCC00004703E040F6FF77C0F20F0709F038FF39460022002808BF2A1C48F20007C4F26C
:200DEC000C0738680028FCD04AF20800C4F20C0001613D600AB109F029FF002E08BFD82171
:200E0C0009D058F83C1C58F83C0CC1F3870100F0030041EA002188B2009040F2FF320023E2
:200E2C002C214AF20000C4F20C0006F0C6FC002E1ABF58F8100CC0F30D0B40F2FF3B09F000
:200E4C00FFFE0021002808BF291C38680028FCD04AF20800C4F20C00C0F814B03D6009B1C7
:200E6C0009F0F4FE002E04BF4FF0000BC6F6880B0DD058F818BC0BF07C420BF47C010BF4BC
:200E8C007C4011430BF0FC0B08434BEA000B09F0D7FE0021002808BF291C38680028FCD0F2
:200EAC004AF20800C4F20C00C0F80CB03D6009B109F0CCFE002E04BF47F28A6BC0F2680B4E
:200ECC000DD058F81CBC0BF47C020BF47C410BF4707011430BF03F0B08434BEA000B09F0CC
:200EEC00AFFE0021002808BF291C38680028FCD04AF20800C4F20C00C0F808B03D6009B183
:200F0C0009F0A4FE002E3AD058F8140C43F6AC71C5F200014B68C0F303525B08C0F303415F
:200F2C0017D243F6AC73C5F200031B6843F3032C12EB0C0203D4102A02DB0F2200E0002296
:200F4C0043F30333C91803D4102902DB0F2100E0002141EA021100F47F4200F0F00E0B042A
:200F6C0000F00F0B222E42EA03024EEA02014BEA010B08D300F0804040EA0B0B03E043F677
:200F8C00277BC0F2710B09F05BFE0021002808BF291C38680028FCD04AF20800C4F20C0034
:200FAC00C0F804B03D6009B109F050FE222E26BFD8F80000C0F30070281C4AF2400BC4F272
:200FCC000C0B222E4FEA400040F020008BF8090126BFD8F80000C0F34070281C202E40F06E
:200FEC0010008BF809013CBF002001900CD3D8F80C00C20C02F44072800D00F01C0100F0E1
:20100C00030011430843019009F01AFE019A0021002808BF291C38680028FCD04AF20800B8
:20102C00C4F20C0002623D6009B109F00FFE202E26BFD8F80C00C0F301500020222E4FEA65
:20104C00400040F060008BF80C0126BFD8F80000C0F3C06100216FF07F00222E40EAC10061
:20106C008BF8010126BFD8F80000C0F3455100214FF60040202ECFF6FF7040EA8100ABF86B
:20108C009C0105D248F20000C4F23F0001900BE0D8F80C000003820D00F47C11920500F4AB
:2010AC00704011430843019009F0CAFD019A0021002808BF291C38680028FCD04AF20800BC
:2010CC00C4F20C0002603D6009B109F0BFFD44204FF0880E8BF8C500002E8BF8C7E01ABF22
:2010EC00D8F80000C0F3C141002140F68406C9F3815041F03001C4F28C3600288BF8C81094
:20110C0041D0401E07D0401E37D00420022106F0F8FC00214BE0284608F04AFF044604207E
:20112C00214606F0EEFC042008F042FF8442FAD143F6AC70C5F2000050F8040C0104090CF0
:20114C004AF8081CC0F3074E4AF804ECCAF8005031680029FCD0002240F2B411CAF8002048
:20116C00C1F2000109680B68000E4FF06022072198474FF48060CBF800000420032106F0D1
:20118C00C0FC002113E00420294606F0BAFC43F2BD704AF8080C4FF086094AF8049CCAF80A
:2011AC00005030680028FCD00021CAF8001058F8200C4BF2700342F22C0E41F22D0C47F611
:2011CC00180240F29449C4F20C0300F03F00C4F2090E8BF8CB0FC4F2090C1A80DEF8000081
:2011EC004AF8441CC4F260294CF81D1C03B0C9F80050BDE8F08F70472DE9F04F0820ADF1CB
:20120C00740DDFF828B3ADF838000120ADF83A00DBF8000001460EA88847C54CBDF83C0011
:20122C002082002666701098A0624FF6FF70E08207F09CFFB046C44D207032463346012009
:20124C00CDF800802946019004F1A800139006F005FA0220CDF800803246334629460190B0
:20126C0004F1CC00129006F0F9F90420CDF80080324633462946019004F1F000119006F041
:20128C00EDF904F14A09042010223146A070484604F004FE04F15A0A10225046314604F027
:2012AC00FDFD04F12C073E6004F10A052E70072060721021E6714A462672022007F072FF8D
:2012CC0003201021524607F06DFF04203A46014607F068FF13981490CDF85890CDF85CA0AD
:2012EC004FF003081A9705F13A00139005F17F00159005F12E00189005F1600019903435C6
:20130C001B950AE06078062818BF072805D1208AE18A1322C0B207F033FB08200A21ADF86C
:20132C0030004FF0FF35ADF83210DBF800700D950CA839468847002840F06981304608214F
:20134C0002900925ADF82010DBF80070ADF8225008A839468847DDF828A00028CDF808A062
:20136C0040F05581BDF82410208A102940F04181BDF82610884240F03C8155462A884FF669
:20138C00FF73A91C934200F02C8151460F78A23F00F008812E3F40F02C818978B1460029B5
:2013AC0000F0D480891E00F0A880491E01297CD9891E4CD0491E23D0491E03D0083900F0B0
:2013CC00E280E4E0119809F035FD02984778002F40F0DD80C1882184018961844089A084A8
:2013EC00129809F073FB002840F0D180676B002F00F0CD803B68208C618CA28C9847F8E0C8
:20140C00A88808F0B3FB13984946062204F046FD26846684A684A8796073129809F00AFDF5
:20142C00119809F007FD4FF001094FF6FF702779E0824FB9A879082814BF042005206070B6
:20144C00484609F029F9A2E084F801809FE06F78E37A27BB291D0A681398026089888180DC
:20146C00062767706889E082E8892084288A6084688AA084E878012B207308D11F2007F01A
:20148C0061FA4FF47A714143129807F0C7FDE8786A892D1D0423294606F0AEFB7AE06878C2
:2014AC0031286ED1E670042023E06F78002F68D1A878A78A6178032812D0E078257927B9AF
:2014CC00012814BF2671E67006E0054304D01498394607F0A3FD61780729E4D1062008E087
:2014EC00062908D0E778002F08BF84F8018051D0022060704EE00720FBE76B786F1C002BA4
:20150C003FD1ED78A279ADB96078022818D0072816D0062802D12079012811D1149809F080
:20152C00D5FA68B9012009F0B7F809E0DC1700202C0A0020159BC0B2494606F019FE38702E
:20154C003F78F7B923E0C046A5A600006F78C7B9169A0220102107F041FE179A40461021BC
:20156C0007F03CFEED1C29681898AF8801600125878029466279199B207C657006F0F8FDC5
:20158C0040B10820B5E7A888052109F027FBB9F1010F2ED1276B002F2BD03F684FB3607823
:2015AC00B84726E06879132823D12889012810D1A07B02280DD1119809F03CFC607806284C
:2015CC0018BF072815D1207CE18A132207F0D8F90FE0052007F0B6F90146119807F01EFD53
:2015EC0007E00888C00B04D31A9A0420014607F0F5FD029FDBF800004FB10821ADF8181054
:20160C00ADF81A80CDF81CA0014606A88847608A2779E17842082ED320F0010057EA0105B4
:20162C00608228D0234802886FB9E179207A8DF80C101B9F8DF80D003B680DF10E052B6087
:20164C00B988A98001E08DF80C80607A8DF81400A17A8DF81510D0B203A909F0B9FA48B117
:20166C000820276B60702FB13D681DB13868014608208847608A810806D320F00200608263
:20168C00304604F02BFF608AC108FFF446AE20F00400A77B60827F1E03D07F1E3FF432AED8
:2016AC003BE601200090618BA28BE38B208B05F0F9FE32E63C0A00202DE9F84FC64DC74E2B
:2016CC00D5F8EF1FCC4C7368D5F8F30F8843C5F8F30F002BC5F8FF1F00F011817788012B24
:2016EC0000F0D680DFF8FCB2BF4FDFF800A3DFF80093DFF80083022B72D0032B40F06A810F
:20170C000024B06855F8312C74600028A2F5C062B8BF404211460029B8BF494288422EDAD5
:20172C00111C54BF02206FF00100B26900EB4100032190FBF1F18918B161F3687069984242
:20174C000BD0B1F11002B8BF524230691038B8BF40428242B8BF88B209DB98B20090A048EE
:20176C0030214FF47F42082306F027F8308A00909B4804214FF4F802122306F01EF858465A
:20178C00046001688908FCD20460012644600E203E6002F0FDFE50460468EFF3118584F338
:2017AC00118849460820B0FA80F00A1AD07F431E0128D37704D14246106820F0080010600F
:2017CC0085F31188EFF3118384F311880420B0FA80F0091AC87F421E0128CA7754D14EE0A1
:2017EC0055F8310CB0F5C06F17D00327776001F067FD45F8397C0027276020688008FCD2C4
:20180C007748394660220523009105F0D6FF0126266020688008FCD364E000217160584619
:20182C00016002689208FCD20160012641600E203E6002F0ADFE50460468EFF3118584F3E6
:20184C00118849460820B0FA80F00A1AD07F431E0128D37704D14246106820F0080010606E
:20186C0085F31188EFF3118384F311880420B0FA80F0091AC87F421E0128CA7704D14246F6
:20188C00106820F00400106083F31188BDE8F88F55F8312C02214BF2F52071605043000A78
:2018AC0037B95649096821F07F414018400801E0002171806060000CA0600126E660032755
:2018CC0045F8397C0027276020688008FCD24448394660220523009105F06FFF26602068C7
:2018EC008008FCD345F8216C45F8397C0820C5F8FF0FC5F8F30F45F8396CBDE8F88F404881
:20190C000068006801462020884741F61D574FF002080F2045F82D0C00214FF4C07207233C
:20192C0045F8297C2E48CDF8008005F046FF012744F8047C54F8040C8008FBD3308845F839
:20194C001D7C012821D0032045F8390C4FF00009C4F8009020688008FCD221484946602237
:20196C000523009105F029FF276020688008FCD345F8217C45F8399C0820C5F8FF0FC5F883
:20198C00F30F45F8397C474623E04FF00009C4F80C90032045F8390CC4F800902068800816
:2019AC00FCD20F48CDF8008049466022052305F004FF276020688008FCD3202045F8210C70
:2019CC0045F8399C0824C5F8FF4FC5F8F34F45F8397C7760BDE8F88F39400C4000230020B6
:2019EC0000A00C4034600C4004800C4084B60000D7180020681E002038600C4010200940F3
:201A0C00A00100102DE9F04F5FEA0009ADF11C0D00F05581AC480068EFF3118280F31188F8
:201A2C00DFF8C8B29BF80400012818BF012003D1022100208BF8041082F31188012800F0BC
:201A4C003C8109F0A3FA0390A948046804EB0B0009F0A8FA4FF00008464637460BEB040157
:201A6C00CDF810800191B0B90C46084609F08AFA0546A868400808D3E86829690246012024
:201A8C009047C0B2002840F01081284609F076FA0546AC42EDD1002F40F00B8109F06AFAF2
:201AAC000290059789480760012008F081FA012804D1404606F088FE4FF00108844F386865
:201ACC008068014630468847864819300090D0F8FF0FB9F1000F00F08C80864C0A34E579E6
:201AEC0005B10126A5790DB146F0020665790DB146F00406DFF8DC9165782DB1B86A006B7B
:201B0C0049460246C88D904725782DB1B86A006B49460246488D90476F4901200860B86AC8
:201B2C008069014646F0200088476C4DDBF80010286840F001002860480813D2684809F081
:201B4C000AF88246BAF1040FF8D0D5F8180220F00300C5F81802B86C406802466048032178
:201B6C00904701E001200490059800F0E4FBB86A0099806BD1F8FF1F8047049858B9B86C5B
:201B8C0040680246564851469047D5F8180240F00300C5F81802386880680146012088478D
:201BAC00504801688909FCD3B8F1010F02D1012006F00AFEB86A4069014630468847B86A93
:201BCC00406B0146304688470128F8D166782EB1B86AC06A49460246C88D904726782EB147
:201BEC00B86AC06A49460246488D90473A49012008603A480168032221F0010101600198E1
:201C0C008BF8042009F0CEF90028059818BF01200125C0B9019C204609F0B4F90646B068E8
:201C2C00C00806D3F0683169024604209047C0B230B9304609F0A2F90646B442EFD102E079
:201C4C002948006880472148009F0560D7F8FF0F08F0FCFF019809F0A5F9059FC8B9019CA9
:201C6C00204609F08FF90646B068000906D3F0683169024608209047C0B230B9304609F028
:201C8C007DF90646B442EFD103E0174800688047022702988BF8045009F068F905F05CF812
:201CAC00039809F05FF938460AE00F4800688047022701208BF80400F2E7062000E002206C
:201CCC0007B0BDE8F08FC04684B600000C4009409001001028B10000282008600C200840AA
:201CEC00004003401410094078B60000681E002074B60000C418002003462DE9F041A24874
:201D0C00A04DA3F2013C002714460E46BCF11A0F1CD8DFE81CF02A0125011E011B00FA0001
:201D2C00F400DD00CC00C500BE00B600AE00A6001B001B009D009000820078006B001B008A
:201D4C001B001B001B0052001B002600272B06DA022E04D12188184607F034FBCDE0022759
:201D6C000DE1012E40F003812846C178012900F0EE8002792178017182B9002900F0FF80FE
:201D8C004078012800F0D480042800F0D180062800F0CE80052800F0CB80F0E0217800293F
:201DAC0040F0ED804178032900F0CD80072900F0CA80052940F0E380C5E0012E40F0D780D2
:201DCC002078012840F0D38005F1F00008F07EFE50B9384604F082FB071C40F0D080284650
:201DEC00CC3009F027F8CAE01627C8E0022E40F0BE8021880A29C0F2BA80B1F5486F00F37E
:201E0C00B6801E3015E0022E40F0B1802188B1F5FA7F80F2AC801C300BE0022E40F0A78088
:201E2C0021880629C0F2A380B1F5486F00F39F801A300180A3E0022E40F0998021880629DB
:201E4C00C0F29580B1F5486F00F391801830F0E7012E40F08C802178022980F288800B304B
:201E6C000DE0012E40F08380217804297FDA0A3005E0012E7BD12178082978DA0930017088
:201E8C007DE0062E73D121683E300160A688868075E0012E6BD12178042968DA0830EEE700
:201EAC00012E64D12178042961DCC01DE7E7202E5DDA05F1890839461F22404603F0EEFFD2
:201ECC0021463246404603F081FAAE7139460FE0202E4CDA05F16A0839461F22404603F081
:201EEC00DDFF21463246404603F070FA6E710121287C3246434606F03BF907463FE0022ECC
:201F0C0035D121882846143093E7012E2FD12846017901291BD0C2782178C17062B9002966
:201F2C002DD04078012803D0042818BF052826D1012008F0B1FB22E0217801BB41780229BD
:201F4C0018BF05291BD1007C08F060FD17E0122715E0042E0BD1216828462C3001600EE0DE
:201F6C00102E04D128465A3005E0102E01D0182705E028464A301146102203F027FA38462F
:201F8C00BDE8F0812C0A00202C0A00202DE9F0411C4615468C4208BF854282BF002300228D
:201FAC00E5E0002C08BF002D0AD100290EBF00286FF000006FF0000100F0E1F8BDE8F08199
:201FCC005FF000085FF0000E002C08BF8D429CBF2C1C0025070C47EA01470E0CB44208BF54
:201FEC00BD429EBF5FEA044444EA15445FEA0545070A47EA01670E0AB44208BFBD429EBFF3
:20200C005FEA042444EA15645FEA0525470847EAC1774E08B44208BFBD4200F293808708CB
:20202C0047EA81778E08B44208BFBD427CD8C70847EA4177CE08B44208BFBD4266D807092D
:20204C0047EA01770E09B44208BFBD4250D8470947EAC1674E09B44208BFBD423AD8870972
:20206C0047EA81678E09B44208BFBD4224D8C70947EA4167CE09B44208BFBD420DD8E601E4
:20208C0046EA5566EF01B14208BFB84201D3C01BB14158EB08085EEB0E0EA60146EA95667A
:2020AC004FEA8517B14208BFB84201D3C01BB14158EB08084EEB0E0E660146EAD5666F0100
:2020CC00B14208BFB84201D3C01BB14158EB08084EEB0E0E260146EA15762F01B14208BF2B
:2020EC00B84201D3C01BB14158EB08085EEB0E0EE60046EA5576EF00B14208BFB84201D329
:20210C00C01BB14158EB08084EEB0E0EA60046EA9576AF00B14208BFB84201D3C01BB14159
:20212C0058EB08084EEB0E0E660046EAD5766F00B14208BFB84201D3C01BB14158EB0808F3
:20214C005EEB0E0EA14208BFA84201D3401BA14158EB08085EEB0E0EA34208BFAA423EBF1C
:20216C002D0A45EA0465240A89D3734642461E4617460B46024631463846BDE8F08170479D
:20218C002DE9FC4F83F0004301E02DE9FC4F1F03FF0847EAD2574FEA42284FEA43095FEAE6
:2021AC00595906D147EA080A1CBF00210020BDE8FC8F57F000575FF4E06E1EF1FF0EF1456A
:2021CC0005D14FF00000190D0905BDE8FC8F002B05D55FF0000AD8F100086AEB07070C03D9
:2021EC00E40844EAD0544FEA40254FEA4106760D08D144EA050A19BF00210020191C101C64
:20220C00BDE8FC8F44F00054764504D10020090D0905BDE8FC8F002904D55FF0000A6D42EC
:20222C006AEB0404B6EB090E08D5A2463C465746AA464546D046CEF1000E4E46BEF1360FB3
:20224C005CBF4FF0000B23E0BEF1000F04BF4FF0000B1AE0CEF1390ABAF120092EBF08FA80
:20226C0009FB07FA0AFB4BEA080BDEF1200A07FA0AFA38BFBA4647FA0EF72DBF28FA0EF8B1
:20228C00AEF1200E4AFA0EF8D04415EB08057C4154EA050A02BF00210020BDE8FC8F002C92
:2022AC0058BF4FF0000A06D55FF0010A5FF0000E6D426EEB0404A6F101066D006441FAD591
:2022CC0015F4806E11D005F480794BEA090B15F5806554F1000428BF761C0BD205F40079DF
:2022EC005BEA090B08BF25F4006525F4E0656D0044EB0404B61CDEBF00210020BDE8FC8F52
:20230C005FF4E06E1EF1FF0E76450AD34FF0000013F00043FF21C900C91D09051943BDE8F9
:20232C00FC8F270547EA1530210B41EA065141EACA71BDE8FC8FF8B504460020C4F209004A
:20234C000068800880F0BB8007F0FAFB42F22421C4F208010A68002112F0030F18BF012112
:20236C00D20828BF41F00201002C18BF41F0040143F69836C2F2000696F90720821A052AE1
:20238C0004DAB2798A4208BFB2886FD041F29C340F28A0F10F02C5F2000424DB02EB021285
:2023AC001712072F88BF07273D46062D88BF062554F825C00423A64603EB85035EF80330D2
:2023CC00CD08A3EB0C0303F0FF0C24BFC3F30725AC448D0824BFC3F30745AC444D0805D335
:2023EC000CEB136C02E04FF0000C674654F82730CC0803F0FF0524BFC3F3072425448C0852
:20240C0024BFC3F3074425444C0828BF05EB1365A2EB07221FFA8CF3534380330022082BD4
:20242C0088BF012243F6B473C5F200031C681B684FF4D07C34275219241703F0FF0307FB7E
:20244C0014C45C434FF6FF73B4FBF2F2934238BF1A1C802892B2B28005DA10F1800F03DA43
:20246C006FF07F0000E07F20F071B17142F20800C4F2090001681F2A4FF00000316008D318
:20248C0040F2FF11914206D25208401C9142FBD301E01F22B2800F3A4FF600714FF0350E17
:2024AC001209C8F2A401C4F2090E40EAC2000143CEF8FB1F4FF0000CCEF8FFCFF8BD43F6EC
:2024CC009E324FF6FD50082141F2300EC2F20002C0F2A4001170C4F2090ECEF80000F8BD1F
:2024EC002DE9F04F8346ADF15C0D06F037FF4FF00009012805D108F03EF8022808BF4FF0DA
:20250C00010954490868C0F38150012806D151F80C1C0120090E884040EA09094E494F4839
:20252C004F4D09780068C0F34600286006F016FF2C46012818BF206802D12068401C20604D
:20254C0038B1FF2204F1400107467F1E01F8012BFBD1DBF80010002601F0FF02FF2A1BD045
:20256C008C46DE46324601270CF0FF01884204D907FA01F319EA030F01D0022067E00CF0D6
:20258C00FF015EF804CF61181E4381F84020521C0CF0FF01FF29E9D1092001F0B3FCC4F882
:2025AC0004B001A800212422082308F0D7FC4FF0010804F1240001AA8DF81C80414608F0A9
:2025CC00C9FC23682BB300276035BA4608FA07F019EA000F17D1064204BF07F0FF0141F4DB
:2025EC00C04104D0E01990F840005BF820101D4802F07EFAF8B24FF0FF3107F085FF2368C8
:20260C00C5F800A001E0042028607F1C2D1D9F42DCD30AA800213022082308F097FC00254F
:20262C0004F1080010210AAB0F4A009508F08AFC0E4A52F80D0C414620F4F85040F400501D
:20264C0042F80D0C0A4BC2F8FF1F2846196017B0BDE8F08FB43F0050A03B00208012084004
:20266C0098380020007FC7670D8200000D300940080009402DE9F84F0D4681462868D9F873
:20268C000440D9F808B0002800F0A98008F056FC616D21B108F04EFC032028749FE0012194
:2026AC002974656508F046FC94F8700030B194F859204C49A06E114306F054FFDBF8001068
:2026CC00486840F002004860D9F804C0D9F80830D5F800E09CF8582019681FFA8EF0904025
:2026EC00B1F1804F1FFA80FA14BF3F4E3F4E4048AA6832B99CF858108F00C2590CF1720142
:20270C0008E09CF858108F000AEB0201C21952F8082C491EB2607160196801F10808C6F85E
:20272C000080B2684FEA0E1143F6F07E10390EEA01010A43B2601A68B2F1804F14BF2D4A14
:20274C002D4A6E68002E04BFC0599E1D04D0C01950F8100C5644761E90601660C2F8048078
:20276C00906801439160DCF86C00DF6841689A68096847EA020088621968486A40F00300FA
:20278C004862DBF80010486940F0010048616E6808F0D4FB194D0746287801280AD016F01C
:2027AC00704F02D1102006F035FD042006F032FD01202870384608F0BDFB207828B96168B1
:2027CC003834204608F0B2FB10B10120BDE8F88F484600F0F7FD2046002108F0A7FB0020B5
:2027EC00BDE8F88F00000680000500203004002008B100001005002040040020A63B00204F
:20280C002DE9FE4F82460E460CAF307A3C8899461546800928BF082080F09780084602A9B2
:20282C0007F096FA012808BF012000F08E80BDF80800DFF81CB142F6021100274FF0FF08DD
:20284C00401A6BD048F2FF21401A33D0401E18D0401E61D1002C5DD1B9F1020F58D128786C
:20286C00062825DAF06829880180F168584688425ED159460878497804F03CFA4FF0020852
:20288C0059E0002C46D1B9F1060F41DA287810280EDCF06829464A4602F098FD04F078FDCD
:2028AC00F16858460C30884242D14FF0010842E080273DE074BBB9F1100F29DCF06829460A
:2028CC004A4602F083FD5C46584600F10C0220781678012802D9401F12D029E06178557891
:2028EC0003F052FB1EB9284608F0F8F805E004F111012846324607F015FA08F0B3F917E0EC
:20290C00D2F8010004F11101324602F05FFD0FE00D270DE00B270BE00A2709E00094012116
:20292C002A4650464B460191314604F01BFF0746B8F1FF0F08D05846001D006820B10068A5
:20294C0010B10146404688473846BDE8FE8FC046301A0020B0B5456884684D48297BADF119
:20296C00180D01291AD001462F7E227C637C494837F0010741EA020240EA03000190464866
:20298C00009218BF011CA27C1143029195F859200323FF2A13D0014610460DE0A17C627CE3
:2029AC00237C41F00041024343F00043029195F85900009339490192014304230391FF21FF
:2029CC0005F15C004DF82310694602F07BFEA866002808BF002058D0287B314951F820003C
:2029EC00012828D02068B0F1804F14BF22220A22217CA86E07F050FA2068B0F1804F14BFB0
:202A0C0021220922617CA86E07F046FA2068B0F1804F14BF24220C22A17CA86E07F03CFA73
:202A2C0095F85910FF292FD02068B0F1804F14BF23220B2225E02068B0F1804F14BF21221D
:202A4C000922217CA86E07F027FA2068B0F1804F14BF22220A22617CA86E07F01DFA2068B0
:202A6C00B0F1804F14BF24220C22A17CA86E07F013FA2068B0F1804F14BF23220B2295F892
:202A8C005910A86E07F008FA012006B0B0BDC046000480A0004000800004C0A00020008080
:202AAC00F0B000002DE9F04F04460D464D4E68782978ADF1140D01EB0021ADF800107188E2
:202ACC00BDF80000884217D1706940F6FF7200EB0110024203D1000BC0B208F023F9BDF8A9
:202AEC000010B079AA1C1023090108F025F97088401C81B2718007E007F0D6FE20464FF6A3
:202B0C00FF7104F02FF87188B088884264D10DF1020007F0BBFFBDF802004FF6FF7181420E
:202B2C0057D0BDF80200002853D0BDF80400814203D0BDF80400002843D1B288F088002743
:202B4C00110101F47043C5B203975FFA92F2C91A82181FFA81FB5FFA82FAAA4528DBAAEB53
:202B6C00050101F10108A8420CBF04240024AA45D8BFA34516DD284621460DF106020423E4
:202B8C0008F0D5F804270DF1060919F8011B039806F07AFF7F1E0390F7D1241DA4B2B4F5BD
:202BAC00805FE4DBF0886D1CB8F10108EDB2DAD10398002106F068FF002106F065FFADF835
:202BCC000400BDF80400BDF80210884201D101F011FE07F069FE02E0204603F0C3FF05B0B9
:202BEC00BDE8F08F841900204D4B2DE9F04F0C46343B998BADF13C0D86460991587B0E9058
:202C0C00598B089158780D90198B0791988C0C90D97A588C0691D3F82CA00B90997A188C0B
:202C2C00059193F804900A90597A93F80C800491197AD88B0391D9795A7902919979DE8AFE
:202C4C000191D9789F8A00919978AEF5407C0025BCF11D0F10D8DFE80CF05D5653504E4CC2
:202C6C004A4743403E3C3937350F3432302E2D272422200F1D1B1A18BEF1270FA8BF02259C
:202C8C0049DA704605F05EFE14E0DDF83880C146CDF834900D98059016E00C980B900B98DB
:202CAC000A900A98074622E04433186820609888A08030E00990099808900898079007980E
:202CCC000690069E268026E0059804900498039001E03E33E9E7039802900298009008E041
:202CEC00019A03F1890111E003F16A010EE03846E0E700990EE03833D7E7C4F800A00AE036
:202D0C0003F15A0101E003F14A011022204602F05DFB00E0217028460FB0BDE8F08FC0468E
:202D2C00600A00202DE9F04F8046D8F80450D8F808400F46ADF1540D08F000F995F898102C
:202D4C0004F10409012903D108F0F4F8002077E04FF0010B85F898B008F0ECF81FB90DA893
:202D6C0007F06CFE0DAFF86828B9D8F80800067B90F80DA002E0067890F801A0FF2EE5D0F0
:202D8C00BAF1FF0FE2D0FF222F49304C139241EA0600119041EA0A011291201D11A902F06E
:202DAC0091FC00282060D1D031460D2207F074F8206851460E2207F06FF838782870786853
:202DCC006860387A002130220823E86001A808F0BDF8CDF81880002400941D4AD9F80010D4
:202DEC0005F1100001AB08F0ADF801A824220823214608F0B3F805F12C008DF81CB0594642
:202E0C0001AA08F0A7F8287838B905F14800214601AA08F09FF80F486860AC672C72EC67D1
:202E2C0099F8040001F06EF8404604F05DFF05F18400094A00940421434606F0F5FD404647
:202E4C0015B0BDE8F08FC04600200084783B00209D3B00006DAD000019AB00002DE9F04301
:202E6C0004466668A5680F46ADF1540D08F066F896F8A4102D1D012903D108F05BF8002082
:202E8C0076E04FF0010986F8A49008F053F81FB90DA807F031FD0DAF4FF00008C6F854804B
:202EAC003869306178697061387E3076387B307338783070786886F870807060786941469A
:202ECC00092828BF494686F85810687801F01AF8204604F097FBE87B86F859002046FFF7F4
:202EEC0039FD50B9687801F053FB08F027F886F8A48008F01FF8444639E001A8414630227B
:202F0C00082308F023F80694CDF800801A4A297806F11C0001AB08F015F8307878B901A83D
:202F2C0041462422082308F019F806F138008DF81C90414601AA08F00DF8104800E0B8689D
:202F4C00B06003F0A7FC317BF066012906D1B06E0B4907F081FEB06E00B1846006F190009A
:202F6C00084ACDF800800421234606F05DFD204615B0BDE8F083C046D135000075AD00005F
:202F8C00B98F0000B9AC00002DE9F0470C469046DFF8F890414D3F4F3D493F4AD9F8003078
:202FAC0008284FF00006ADF1180D69D8DFE800F05F5B4C4844403A1105C0072C59D1404610
:202FCC00828805F108018A8087798F710068086057E003940420ADF80A004FF0080AADF86B
:202FEC0008A002A89847D8B904980746C0B1696805F1170088420BD005214846ADF80210BB
:20300C006A68ADF800A00068019201466846884738464146224602F0D9F96F602C7030E022
:20302C0013262EE0142C24DC01F11505294601E0142C1EDC0D460BE0142C1ADC3D4606E08A
:20304C00142C16DC3D4603E0142C12DC1546153528463146152202F021FF2846414622466E
:20306C0002F0B4F90DE0142C03DC1546DEE7082C01D0182605E0404642686A394A60A5E748
:20308C000226304606B0BDE8F087C046DC170020651600203B16002011160020EC15002027
:2030AC002DE9F041404F387800287AD03F4C208910F07F0F00F07F0871D005F05EFE3C4EB7
:2030CC0021783578A0700DB902293AD12279C30917D2400824D304F1140005F0F5FD04F11E
:2030EC001A0005F0B5FDE578E088002D08BF217816D00021E17021784FF47A7292FBF0F024
:20310C0009E0521CD0B20228207109D1E0884FF47A72B2FBF0F002B2500000EBC200E06020
:20312C000025022935700CD12089C00909D304F1200000F043FB052826D008B104F0CCF88C
:20314C002178E66816B901291FD128E0022904F1140509D0022020700026267100F03EFFDD
:20316C0010B1404601F07CFA2089000A02D3E068401EE060002012212A4602F0F1FF06205C
:20318C00012104F0EBFE0AE0E560002020710126267000F023FF10B1607800F0D7FD0020F8
:2031AC003870BDE8F081C046A43B002000200020A33B00202DE9F0430646ADF11C0D07F0AF
:2031CC00B1FE06F0E1FA4FF000090546CDF8089007F072FD30F0010002D00298A84202D1C3
:2031EC006FF0040068E070684C4658B1B0F1FF3F05D001A906F098FA30B107465BE04FF017
:20320C00FF3000E02046019007F088FE0199012701EB000802E013463DE001936868019913
:20322C0007F084FE00282FD003A804F0F1FAE0B9BDF81000694606F08FFA90B9B268BDF8B4
:20324C000000BDF812101346059A984748B1BDF80000BDF81210B081059BF1814F463361C3
:20326C0012E0059902A806F0FBF80198641CB0F1FF3FD3D00028D1D007F050FEB8EB0003D0
:20328C0002D001989842C8D2029E07F0F7F805F1080146B1334653F80C2C002ABBD10A68A3
:2032AC0043F80C2C0E6007F08BFA24B1686807F031FE641EFAD1384607B0BDE8F083704789
:2032CC002DE9F843804607F0BBFC002100B901213A4D2D1F28680028FCD0DFF8DC90012660
:2032EC0009F10407FC6A2E6009B107F0AFFC3448C4F3072100F10804616007F0A1FC014679
:20330C00002001B93046014628680028FCD03F682E6009B107F09AFCC7F38441A8F5C060CE
:20332C00A160B8F5C06F2060B4BF6FF001030223626803EB4003032093FBF0F00918104626
:20334C0002290FDB1E290BDB3F28B9BF521C401C3F22101CE2603029B4BF10391F210DE065
:20336C00E0600BE010F13F0FACBF401E6FF03F00E06011F1100FACBF10310021216180B27E
:20338C004FF47F42082330210090484604F015FA0096484604214FF40032112304F00DFA93
:2033AC00208A04214FF4F80212230090484604F004FABDE8F883C04600A00C4004800C40CE
:2033CC00002300202DE9F04707467C68BE6807F0B5FD0834E16C002968D007F0ABFD31682F
:2033EC00486820F0020048603168486A20F003004862606EF5684168B268096845EA0200BF
:20340C00C1F804053168486920F00100486130684FF00108C0F820803068B0F1804F14BFC7
:20342C0040F201104FF48070224909688847384604F0E8F8E06CD0F804A007F07FFD1E4D77
:20344C008146287850B11AF0704F02D1102005F059FC042005F056FC00202870484607F03A
:20346C0069FDE16C087C042802D003200874E16C606E4368B268F0681B684546104385400E
:20348C00DD623068B0F1804F14BF0C480C48026808689204A0EB9250401E08602068002310
:2034AC000246E36438469047BDE8F08707F042FDBDE8F08778000010A63B002008050020F8
:2034CC00380400203A482DE9F04F0821ADF11C0D0068ADF8101001460120ADF8120004A8C5
:2034EC008847374CBDF8140060800698A06003F055FD04F10C0006F089FF4FF0000884F8A0
:20350C0000804FF47A76A68006F0DAFC02206421012207F0CDF84FF0FF3104F1100001F00F
:20352C0011FE2448244D07682448B5FBF7F9B0FBF7FA38E0012006F0EBFC484607F02EFDB6
:20354C0002A804F0C9FE8346404606F0E1FCBBF1000F1CD002A801A96A4600F029FA9DF885
:20356C0005308DF809309DF804208DF808209DF806008DF80A009DF802108DF80D109DF8DE
:20358C0001308DF80C309DF800208DF80B204046062102AA02F000FFA0887043401BB0FB9D
:2035AC00F7F007F0FBFC20780128C3D05046F8E7DC17002088B600008038010040420F00C6
:2035CC00B80D00202DE9F0470646B1680A687468D06908341062400842D2606E40680268D7
:2035EC00CD68D2F80405284206D00B68586A20F002005862C2F80455D2F80425886802423C
:20360C0058D00A68506A20F001005062606E406889680068C0F80415E06C00250574E76CAA
:20362C00D7F804A007F08AFCDFF88C80814698F8000050B11AF0704F02D1102005F062FB35
:20364C00042005F05FFB40460570484607F072FC2068E5643946024630469047BDE8F087FC
:20366C000A68506920F001005061E76CFFB9506820F002005060506A20F003005062606E7F
:20368C008B684468CF682168B2F1804F47EA0300C1F804050CBF4FF4807040F201100749C6
:2036AC0009688847304603F0ADFFBDE8F0873046FFF788FEBDE8F087A63B002078000010F6
:2036CC002DE9FC4191EA03084CBF4FF000484FF000084FEAC32545EA52554FEAC2264FEADB
:2036EC0043077F0D11BF45F0004500210020BDE8FC815FF4E06E1EF1FF0E774555D04FEA64
:20370C00C12343EA50534FEAC0224FEA4104640D11BF43F0004300210020BDE8FC8174457D
:20372C0043D0E419A3FB0501A3FB06E7A2FB06631EEB030E57F1000751F10001A2FB056387
:20374C001EEB060E57F1000751F10001FF1851F10001C01951F100014CBF4FF4806E4FF4B9
:20376C00007E10EB0E0051F1000148BF641C01D4400049415FF44077FF37E41BDEBF002150
:20378C000020BDE8FC8117F58067BC420DD24FEAD02040EA41504FEA41014FEA113141EA06
:2037AC00045141EA0801BDE8FC810020FF21C900C91D090551EA0801BDE8FC81FEB53D4CB3
:2037CC0005460621601C017007F0D2F818B907F049FA0020FEBD002601206821667002F03F
:2037EC00D3FB2220694601228DF80000372006F099FA08B90520607007F034FA607800289B
:20380C0018BF301C54D101200C2102F0BDFB02206946012206F0F5FF00283CD09DF80000B5
:20382C00400836D303200DF10101072206F0E9FF68B39DF80700000927D29DF802709DF8AC
:20384C0001009DF804609DF803109DF806309DF8052040EA072041EA062142EA032200B28F
:20386C00288009B2698012B2AA80B4F90830584300122880B4F90A00414308126880B4F9DE
:20388C000C0042431012A88007E0032004E0042002E0022000E00120607011208DF80000A4
:2038AC00694601220A2006F03DFA07F0DBF96078FEBDC0469421002038482DE9FC47006859
:2038CC000068014620208847354DDFF8D8A04FF002080F2000214FF4C072072345F82D0C9F
:2038EC0041F61D5045F8290C5046CDF8008003F064FF2D4C012644F8046C54F8040C800845
:20390C00FBD3DFF8A890B9F8000045F81D6C01281FD0032045F8390C0027276020688008CC
:20392C00FCD23946504660220523009103F045FF266020688008FCD345F8216C45F8397C05
:20394C000820C5F8FF0FC5F8F30F45F8396C464620E00027E760032045F8390C2760206819
:20396C008008FCD2CDF80080504639466022052303F023FF266020688008FCD3202045F8EA
:20398C00210C45F8397C0824C5F8FF4FC5F8F34F45F8396CC9F80460BDE8FC87A0010010E6
:2039AC0039400C4000A00C4038600C4000230020F8B53A4BC578047944EA05242501B3F90E
:2039CC000270447990F800C045EA24151C88EE10A6EB4406C4EB251464432513B3F90440C8
:2039EC0077436C43A41304EBE724877804EB840580352E12457845EA0C20B3F90A500E60A9
:203A0C00000140EA271E6010A0F57A40811049434C136C43B3F9085045436D1005EBE4055E
:203A2C004FF4004404EBA544DD886543EF1331D09C46BCF90E40BCF91030BCF90C50164EBC
:203A4C00C91260434B4340F63544290403EB400301EBA30104FB1E65081304FB1050C10FE5
:203A6C0019BFB0FBF7F040004000B0FBF7F0BCF91410BCF91650BCF91240C30886085B43CC
:203A8C0071435B0B49136B4301EB2331641800EB24101060F8BDC046000050C34C3B002036
:203AAC00F8B507F0CDF8314C256805F00C000C2855D0E8082ED22E480068EFF3118780F372
:203ACC0011882C4EB068002107F020FA7169B269091A8A4238BF002187F311882648006898
:203AEC00884217D22548264A264D036812682868B3FBF2F22018891A07F004FA2868201818
:203B0C0007F0FCF90120FDF77DFF2868201807F0F1F925E0280922D21B48690939BF016813
:203B2C0021F00101016841F0010102460160D2F898004FF0805440F00300C2F89800D4F85B
:203B4C00B8018069014620208847D4F8B8010F4C806B2168804701202060206800E030BF4E
:203B6C0007F074F802F0FEFEF8BDC046681E002084B60000780100207CB6000080B600004C
:203B8C0088B600006CB600008C2108402C200940F8B5064635480068B46875684068014669
:203BAC0020688847226801210835C2F81C1868B12B78FF2B0AD0FF214009297051D20420C2
:203BCC00C2F80408022007F0FFF84AE02878002847D0401E13D0401E02D0FD3844D03DE023
:203BEC00D2F80828A86E0270A86E401CA866EF6E7F1EEF6619D0012F88BF092127E06F6EFA
:203C0C007F1E6F6613D1EF6E7FB10220E96D28702268097C012F4FEA410141F00101C2F8FE
:203C2C00001894BF03210B2113E004210DE0286E22680078C2F80808286E022F00F101009D
:203C4C00286604D2EF6E17B905210020287022680220C2F8041807F0B7F8F8BDFF20287055
:203C6C00F8BD304603F04AFCF8BDC046AC010010F0B50C460746ADF11C0D07F0D7F810B1CA
:203C8C00684604F099FAE179A0792F4D002600EB01206E808010A880E079A17901EB00219C
:203CAC008A10201D694606F0A9F9211D00283AD1A968384606F0BAFE400831D338461B2126
:203CCC000822334606F088F9059048B305F1180009212A4606F0A8FB08224189ADF8122022
:203CEC00059CADF810109DF800002070BDF800100598091241709DF802108170BDF8022090
:203D0C0001AD1212C2702968031D32463846196004A906F021FB18B104A81B2106F092FB80
:203D2C0006F0C2FD0EE0084606F060FD6861000BE88006F0B3FE204604F066FC384631469F
:203D4C0002F010FF07B0F0BD84190020F8B5064606F00EFE00284FD00120682102F014F94A
:203D6C0000284BD02E4D09202C1D0122207021466B2005F0D7FF00283ED00720287121463A
:203D8C0001226C2005F0CEFF002835D001271D2021462F713A4605F0C5FF00282CD0402050
:203DAC00287121463A46382005F0BCFF20B3C020287121463A46692005F0B4FFE0B12E71DB
:203DCC001F2021463A4605F0ADFFA8B10620287121463A461E2005F0A5FF68B1292028713F
:203DEC0021463A466B2005F09DFF28B1E91C1C203A4605F097FF18B906F034FF0020F8BDC0
:203E0C003A2021463A4606F0FCFC06F02BFF002129706869034905F0A5FB3846F8BDC046A2
:203E2C00942100200700068031482DE9F04F08214FF0010BADF1140DADF804100068ADF84D
:203E4C0006B0014601A888472D4DBDF8080068800398A86003F088F905F10C0006F02AFB8E
:203E6C004FF47A764FF000090422AE80484685F80090014606F040FC29785846024606F0D6
:203E8C003BFC06F0CEFF022064215A4606F034FC4FF0FF3105F1100001F054F91549164840
:203EAC00164F0C68B0460646B0FBF4FA1AE0584604F06AFC504607F071F80DF102006946AB
:203ECC0001F08CFC484604F05FFC484604216A4602F078FCA88808FB00F0801BB0FBF4F06A
:203EEC0007F05CF828780128E1D0B7FBF4F0F7E7DC17002088B600003832040040420F002D
:203F0C00281300202DE9F04105462E480068EFF3118880F311882C4A505D411C00285155F5
:203F2C0049D12A4CA900675C07F03F003F280C4401D0FFF7E7FF607800F03F003F2801D0A0
:203F4C00FFF7E0FF668837F07F0019D1F80911D24FF08054D4F8B801406901463046884751
:203F6C0004F5DC742068406B0146304688470128F8D120E0164850F82610012088471AE075
:203F8C004FF08054D4F8B801C069014630468847D4F8B801406A014630468847D4F8B80188
:203FAC00C06A01463046884701210A4A0A48116001688908FCD388F31188284605F0D0FFF7
:203FCC00BDE8F08184B60000C418002028B10000DC1800202820086028200840F8B5334D2F
:203FEC002F49686905F0BEFAFF20A87000242C7068216C70012001F0C7FF002808BF271C59
:20400C004CD02C4680200122211D20716B2005F089FE06F027FE234923480D68B0FBF5F076
:20402C0006F0BCFF03F086F9261D071C36D0012003F014FD06F09CFC60B304F01DFA58B309
:20404C0001200C2101F0A0FF30B30F203070314601220A2005F066FE42F21070B0FBF5F063
:20406C0006F09CFF04F10E011020032206F0C9FB04F10E0140B1087880302081487880305A
:20408C00608188788030A08101220B203146227105F048FE06F0E6FD04F056FB3846F8BD7E
:2040AC000700008088B60000A0860100942100202DE9FF4782460D460CAF287A3F889946B9
:2040CC001446800928BF082055D2084602A905F03FFE012808BF01204DD0BDF80800DFF8CE
:2040EC009C8042F60211FF26401A2ED048F26311401A012827D827BBB9F1010F1FD1BDF85F
:20410C0008104AF666200027884202D12178032913DA2178EA681170BDF80810884205D067
:20412C00E968404688421AD13E461AE0E9684046401C884213D1012613E080270FE00D27A4
:20414C000DE00B270BE00A2709E000970121224650464B460191294603F004FB0746FF2E7A
:20416C0008D04046001D006820B1006810B101463046884738460090BDE8FF87481F00200A
:20418C002DE9FE4F82460D460CAF287A3C8898469146800928BF082056D2084602A905F011
:2041AC00D7FD012808BF01204ED0BDF80800DFF89CB042F602110026FF27401A2ED048F2E7
:2041CC003F11401A34D0401E14D0801E24D10CBBB8F1010F1CD199F800000A2808DBE968EC
:2041EC000870E9685C46601C884221D1022721E080261DE074B9B8F1010F09D199F80000F2
:20420C00E9680870E9685C468C4211D1012711E00D260DE00B260BE00A2609E00094012102
:20422C004A46504643460191294603F09BFA0646FF2F08D05846001D006820B1006810B1CB
:20424C000146384688473046BDE8FE8F1C1C00202DE9FE4F82460D460CAF287A3C88984641
:20426C009146800928BF082056D2084602A905F06FFD012808BF01204ED0BDF80800DFF87E
:20428C009CB042F602110026FF27401A2ED048F21F11401A34D0401E14D0401E24D10CBBB3
:2042AC00B8F1010F1CD199F800000A2808DBE9680870E9685C46601C884221D1022721E088
:2042CC0080261DE074B9B8F1010F09D199F80000E9680870E9685C468C4211D1012711E059
:2042EC000D260DE00B260BE00A2609E0009401214A46504643460191294603F033FA06468B
:20430C00FF2F08D05846001D006820B1006810B10146384688473046BDE8FE8FB41C002042
:20432C002DE9FE4F82460D460CAF287A3C8898469146800928BF082056D2084602A905F06F
:20434C0007FD012808BF01204ED0BDF80800DFF89CB042F602110026FF27401A2ED048F215
:20436C00FF01401A34D0401E14D0401E24D10CBBB8F1010F1CD199F800001E2808DBE968C6
:20438C000870E9685C46601C884221D1022721E080261DE074B9B8F1010F09D199F8000050
:2043AC00E9680870E9685C468C4211D1012711E00D260DE00B260BE00A2609E00094012161
:2043CC004A46504643460191294603F0CBF90646FF2F08D05846001D006820B1006810B1FB
:2043EC000146384688473046BDE8FE8F481D00202DE9FE4F82460D460CAF287A3C88984673
:20440C009146800928BF082056D2084602A905F09FFC012808BF01204ED0BDF80800DFF8AD
:20442C009CB042F602110026FF27401A2ED048F27F11401A34D0401E13D0401E24D10CBBB2
:20444C00B8F1010F1CD199F800000A2807DBE9680870E9685C468C4222D1022722E08026B7
:20446C001EE07CB9B8F1020F0AD1E868494609880180E9685C46601C884211D1012711E043
:20448C000D260DE00B260BE00A2609E0009401214A46504643460191294603F063F90646BA
:2044AC00FF2F08D05846001D006820B1006810B10146384688473046BDE8FE8FD81A00207F
:2044CC002DE9FE4F82460D460CAF287A3C8898469146800928BF082056D2084602A905F0CE
:2044EC0037FC012808BF01204ED0BDF80800DFF89CB042F602110026FF27401A2ED048F245
:20450C006F11401A34D0401E14D0401E24D10CBBB8F1010F1CD199F800000A2808DBE968B8
:20452C000870E9685C46601C884221D1022721E080261DE074B9B8F1010F09D199F80000AE
:20454C00E9680870E9685C468C4211D1012711E00D260DE00B260BE00A2609E000940121BF
:20456C004A46504643460191294603F0FBF80646FF2F08D05846001D006820B1006810B12A
:20458C000146384688473046BDE8FE8FDC1D00202D492DE9F0410968EFF3118881F3118804
:2045AC002A4B195C4A1E01291A5449D12849800045180E5C6F8836F07F0019D1F00911D2D1
:2045CC004FF08054D4F8B801806901463846884704F5DC742068406B014638468847022880
:2045EC00F8D120E01D4850F82710002088471AE04FF08054D4F8B801006A01463846884783
:20460C00D4F8B801806A014638468847D4F8B801006B01463846884701210E4A0E481160C6
:20462C0001688908FCD306F03F003F2801D0FFF7AFFF687800F03F003F2801D0FFF7A8FFB0
:20464C0088F31188BDE8F08184B60000C418002028B100002820086028200840DC180020C1
:20466C00BCB5074606F084F900285AD02E4C207840BB3FB306F07CF910B30120682101F0E3
:20468C0083FCF8B10920211D207101226B2005F049FB251DA0B13F202870294601226C205F
:2046AC0005F040FB0021217050B1E11C1C20012205F038FB20B13A202946012206F0A1F83B
:2046CC0006F0D0FAF8B2277040B380F0FF0020716821012001F058FC28B3211D6C20012223
:2046EC0005F020FB06F0BEFA247806F041F9C4F38014B0B103F0C0FEA8B101200C2101F02F
:20470C0043FC80B1002C0CBF00201120694601228DF800000A2005F005FB02E004F014F87D
:20472C00BCBD06F09FFABCBD942100202DE9F04782460E467068DAF80810DAF804500024A2
:20474C0001F1040810B9F06800284ED0287801280FD106F0F3FBA96F39B1E96F8E61EE67BD
:20476C0006F0E8FB0120BDE8F087AE67EE6706F0E1FB06F0E3FB1E4F81463878012804D026
:20478C00042004F047FD01203870484606F0D2FB05F12C094FF0FF31484606F0C7FBD8F8E7
:2047AC00000006F0A3FB5046314601F003FFD8F8000006F097FB287898B905F148004FF093
:2047CC00FF3106F0B3FB06F0B9FB0646387818B1042004F097FA3C70304606F0ABFB287A81
:2047EC0000B90124484606F095FB2046BDE8F087A13B0020F0B54FF4F0204FF48051ADF193
:20480C00140D02F03BFB2A4D4FF4F0201021AA1C01F0E0FC4FF4F83004216A4603F0C3F9C6
:20482C000098B0F1FF3F2CD04FF0805606F5EC7420681E4F006801210A4603463846984714
:20484C00D6F8D801406801210246384690474FF4F83005F0AEFD4FF4F8363046102101AA70
:20486C0003F0A1F938B101A83146102205F092FD1036700CF1D02068406800210246384646
:20488C0090474FF4F8300068B0F1FF3F0CD0E88929898000890002468B18A3F5F833002BA2
:2048AC00C8BFC91A034B984705B0F0BD004003404823002001F001001CB52D4C401E02D079
:2048CC00401E44D01CBD06F0EBF9400931D32089FF2831D00120694604F014FBBDF8000001
:2048EC0010F07F0F18D0BDF800002081022002F005F806F03DF8A8B11E48006841F2883191
:20490C00B1FBF0F006F04AFB04F0C0F9BDF8001041EA0020208105E0BDF80000208100200B
:20492C0001F0ECFF04F108020120022101F018FC07E0FF20083420800120FF21022205F00B
:20494C00B7FC00201222014605F0B2FC1CBD02200DF1020104F0D6FA9DF80200410001EBD6
:20496C00C001E18004F1280003F024F81CBDC0460020002088B6000070B52C4E2C4D01283F
:20498C0006D068BB31460020491C05F041FC27E03146012005F03CFC34462078022817D0F5
:2049AC00621C0020012102F05DFF28680621002204F0E0FA28680F21002204F0DBFA6068C3
:2049CC0006F098FA28681521002204F0D3FA07E006F066F9621C60700121002002F042FF9B
:2049EC0031460878012820D1344628686178490834BF00220122062104F0BCFA28686178F4
:204A0C00890834BF002201220F2104F0B3FA61786068C90807D206F06DFA28681521002260
:204A2C0004F0A8FA70BD06F069FA70BDC82100203405002038B52D4C054600206908A4F1E8
:204A4C000104207009D300F00FFD002808BF207803D0207840F001002070A90809D301F0AC
:204A6C00B4FF002808BF207803D0207840F002002070290909D300F045FD002808BF2078FC
:204A8C0003D0207840F008002070E90809D303F0F2F9002808BF207803D0207840F0040006
:204AAC002070690909D302F045FC002808BF207803D0207840F010002070A90909D303F096
:204ACC0023FE002808BF207803D0207840F020002070E90909D305F07AFF002808BF207814
:204AEC0003D0207840F04000207038BD093B0020F8B50D46EEB2290824BF27494D40274BC3
:204B0C00B400DFF89CC0195900EA05020CEA020200F4E02C85EA0107BCF5E02F00EA070716
:204B2C0021EA0001C7F3006742EA010201D1510E14D300F4E0210F4310D002F4E027B7F525
:204B4C00A02707D0B7F5803704BF22F4003242F4A02203E022F4803242F4C0221A51114CBA
:204B6C00C10D04D3C5F38052A4F180018A55000E11D306F0E3F9290E03D201220021B240FF
:204B8C0002E00122B24011465034236893431943216006F0CFF9F8BD006000A0001008402E
:204BAC00007F077F802002402DE9FE4F82460D460CAF287A3C8898469146800928BF082016
:204BCC0049D2084602A905F0C3F8012808BF012041D0BDF80800DFF884B042F602110026AA
:204BEC00FF27401A22D04AF2C031401A0BD0401E1AD1BCB9B8F1010F12D199F80000E96899
:204C0C00022708701EE06CB9B8F1080F08D149460A6858460E30496802600127416011E081
:204C2C000D260DE00B260BE00A2609E0009401214A46504643460191294602F093FD0646DF
:204C4C00FF2F07D05846006820B1006810B10146384688473046BDE8FE8FC046801B002046
:204C6C0029482DE9F04308210125ADF1140DADF804100068ADF80650014601A88847254C14
:204C8C00BDF8080060800398A06002F0E3F904F10C0005F0E5FB4FF47A76A68005F0C0F925
:204CAC00022064212A4605F00FFD04F075FE4FF0FF3104F1100000F045FA1448144F05689A
:204CCC00B04643F698200646B0FBF5F916E005F0EFF9484606F062F90DF10201684603F0A8
:204CEC007BF8002004216A4601F004FDA08808FB00F0801BB0FBF5F006F050F92078012808
:204D0C00E5D0B7FBF5F0F7E7DC17002088B6000040420F007010002070B52B4C22786078CD
:204D2C0082424BD000200121224603F08DFC244D2878022802D1207805F002FD6378227853
:204D4C00204E980819D3900817D22878062810D1E56820693168401B4FF47A75414340F667
:204D6C00B830B1FBF5F1884207DA41F27070884203DD02F09FFC2278637803F00300032822
:204D8C001CD102F00300032818D030682569E16853409B083CBF6168A5684FF47A736D1AE5
:204DAC00684341F27071B0FBF3F0814206DA15200A2103F0D3F805F05BFA2278627070BDF6
:204DCC002005002088B60000342300202B482DE9F8430D469C4608AF91466968BC883E886B
:204DEC004B78027809784FF0000842F6232701EB0321C91B674628D0491E052917D9891F5A
:204E0C000CD0263933D1072E2ED8C6F10701A14298BF8CB23618083631461FE0B24223DBE1
:204E2C00921BA242D8BF94B23C8040680BE0E86805F094FD80B2B04216DB801BA042D8BFAA
:204E4C0084B23C80E868311809E0082E0CD8C6F10801A14298BF8CB231180F313C804846AD
:204E6C00224600F0B3FA06E04FF0070803E040464FF00A0838804046BDE8F883EC150020B4
:204E8C0041F21C3010B5C5F200000468B4F1FF3F08BF002405F044FD40F2844346F25C010D
:204EAC00002242F2082E012040F2801CC4F26023C4F20C011A60C4F2043E0860C4F2283C7B
:204ECC00CEF80000DCF8000038B140F20010C4F2203000682046FBF7A7FE44F20402C4F2A4
:204EEC0003021068052142F24803C2F20001C4F2030320F003000143116019684FF0000E7D
:204F0C00C0F2391E6FF35B414EEA01000421C4F2090118600868C0F30130012809D10A681F
:204F2C004FF6FF70CFF6FC40104040F400320A60086010BD2DE9F04F09AFADF11C0D9246AF
:204F4C0006903C880493D7F80880059197F80490039430B1081C04D0181C18BFB8F1000F11
:204F6C0001D1022038E01E4801780026354630E0069C04EB8504B4F800B04FF6FF705845C2
:204F8C0023D0A7780FB303990498059A05F04CFA0290D0B178080AD3CDF80090CDF8048011
:204FAC00029B01215846524600F036FF0643A07880080AD3CDF80090CDF804802088029B22
:204FCC005246022100F028FF0643054801786D1CEDB2A942CCDC304607B0BDE8F08FC046D2
:204FEC002C0A002030B50220ADF1140D0DF10A0104F06AFB01200DF1090104F065FB244D39
:20500C00002005F1280104F05FFB002005F1580103F078FF01200DF10B0103F073FF02206C
:20502C0002A903F06FFF95F82A4095F82B2095F8291095F828006B4644EA022440EA0120BE
:20504C0001AA214601F080FA03F020FE95F85E0085F8780095F85F1085F8791095F86020C7
:20506C0085F87A20687A95F8611085F87D4005F16A02401C85F87B10C0B285F87C0014218D
:20508C00687240F20730FCF737FE05B030BDC0462005002029482DE9F84FD0F80090EFF3A4
:2050AC00118589F31188264CA068012105F02EFF4FF0010A4FF00008064621686769A4F8A9
:2050CC001CA02068A4F81E80791A321A8A42A6EB07062DD385F311884546EF195046394644
:2050EC0005F0FCFE761B0546B542F6D9EFF3118B89F31188E08B012804D14046394605F01D
:20510C00EDFE0546B5F1FF3F06D0A169AD1BA94238BF0D1CE91901E0A5697919284605F0D0
:20512C00D9FEA4F820A0A4F81C805D46276001E0A4F81C8085F31188BDE8F88F84B600003E
:20514C00780100202DE9F84F0E46044605F01EFF834625480068EFF3118A80F31188D4F8AA
:20516C0008904E4533D01E481E4D0768002E06D4AF69012000FA06F807EBC60702E04FF09C
:20518C0000087F19207D012817D1204605F09EFE206C05F007FF18B1E168686888436860C2
:2051AC002869844212BF381C6F613868214605F089FE686848EA00006860A660C4F80C80FC
:2051CC002764002E44BF00206861012028818AF31188584605F0C6FE4846BDE8F88FC04627
:2051EC00E80500000001002084B60000F8B5264C2068EFF3118680F3118824491D4D0B68E5
:20520C000420B0FA80F043F00403281A1F3002780B60521C027086F311882068EFF31183A4
:20522C0080F311880A680820B0FA80F042F008022D1AE87F0A60401CE87783F311880E2056
:20524C00FEF760FE0C480068C0F38150032814BF0020012009490A4A088017683FB9094C76
:20526C00402020600123D36100204860F8BD0120F8BDC046D7180020B43F005000230020FC
:20528C0004800C402C500C4084B60000681E0020F0B520480127F84201D002F043FF204DA9
:2052AC00204F214EBD4206D203CD0478A4003459401CA047F6E71D48002800D08047164D09
:2052CC00164FBD4202D210CDA047FAE7F0BD03251BE0416808300A1C2A400BD11A1C2A4028
:2052EC00AB4305D0046804300C600431043BF9D1131C05D0047801300C700131013BF9D130
:20530C00021C2A4001D0A84304300368002BE0D17047C046FFFFFFFF000000000000000009
:20532C0060C20000E8C20000E0C1000059C50110F0B50446234DA7682868ADF12C0D67BBCE
:20534C000C2000F0E9FB071C1ED0684600212422082305F0B3FD002306976A466168ADF86D
:20536C0010301948059305F0A5FD386078B908210C22ADF82410A869ADF82620014609A864
:20538C008847384604F034FC6FF0030018E0E06878602069B860A7600AE0804706463868D1
:2053AC0005F0A8FD2069B86068680146304688473868616805F0A6FD386805F09FFD0020F8
:2053CC000BB0F0BDC417002027AD0000002A4AD05FEA000C8B071CD1830722D1102A08D3E0
:2053EC0070B4103A78C978C0103AFBD270BC103238D0042A2CD3082A05D30C2A24BF08C90C
:20540C0008C008C908C008C908C092072AD0920F22E00B780370491C401C521E22D08B07A5
:20542C00F7D1C30714D18307D8D0121F12D308C903801B0C4380001D121FF8D20AE008C990
:20544C0003701B0A43701B0A83701B0AC370001D121FF4D2121D05D00B780370491C401CB6
:20546C00521EF9D16046704710B50020442100F08BFD002808BF002440D0214C1F200222D4
:20548C00214605F0BEF9002835D021880806000C40EA2120782815D11020208021460220B3
:2054AC00024604F03FFC30B302202146024605F0A8F900B321880806000C40EA2120B0F599
:2054CC00805F01D0208016E00020208021460220024604F027FC70B102202146024605F0EB
:2054EC0090F940B121880806000C50EA2120208008BF012400D0002405F0B4FB204610BD91
:20550C00903B00201CB50020772100F03DFD002808BF00243FD0D0206946012205F071F99E
:20552C00002835D09DF80000582831D1F5206946012205F066F900282AD09DF8000038BB36
:20554C0055208DF8000069460122F42004F0EAFBF0B1F4206946012205F053F9C0B19DF8B8
:20556C000000552814D1B6208DF8000069460122E02004F0D7FB58B1F4206946012205F0E6
:20558C0040F928B19DF80000002808BF012400D0002405F067FB20461CBDF8B5064604F0CD
:2055AC0067FC43F66435C2F200056F68044604F0C7FA2A69E41B4FF47A716143090C801A08
:2055CC0048BF404240F6B83289198A4216D3062814DAA968E868814210D82A6872B1401A88
:2055EC0044F24021C0F20F014143080C00EB9140824212D91046C82811D312E043F6AC71D1
:20560C00C5F200014868400828BF4FF4FA600DD209687D2001F0FF014843C82801D2C82036
:20562C00F8BDB0F57A6F88BF4FF47A60F8BD70471CB5234C401E02D0401E31D01CBD05F0AE
:20564C002FFBC00824D32078FF2823D00120694604F0E2F89DF80010207869B9A0B104F160
:20566C00080005F0E7FB002004F053FA00200222014605F035F807E030B9012004F049FA09
:20568C0004F1080005F0D4FB9DF8000020701CBDFF2020700120FF21024605F021F81CBD20
:2056AC000220694604F0B8F89DF80000410001EBC001618004F1080002F07CF91CBDC046C2
:2056CC00B82200202DE9F843204E0F4604464FF0FF3106F12405284605F028FCA946002041
:2056EC0000E0401C6FB117F82010FF2909D032688A4204D906EB8101096E0029F1D00024C7
:20570C001CE0002020604FF0010860600546A0600EE00878636808FA00F01843606006EB57
:20572C0082030A6808491C66204604F08DF86D1C27B107EB85010A78FF2AEAD1484605F0F2
:20574C00E9FB2046BDE8F883007FC76798380020401E1CB502D0401E2ED01CBD05F0A0FA71
:20576C001C4C00091DD32078FF281CD00120694603F0DAFD9DF8000030B19DF80000012843
:20578C0016D10121217007E0002006222070014604F08EFF4FF0FF3104F11000FFF7D2FCA4
:2057AC0006E0FF2020700120FF21024604F080FF002004F0ADFB1CBD0220694603F0B4FD42
:2057CC009DF8002004495000091D00EBC20008801CBDC046B80D0020B80D00202DE9F04120
:2057EC0005460E460020442100F0CEFB002808BF002035D01B4C04200222214605F001F8A8
:20580C005FEA000822D021880806000C40EA2120C0F380382080C00B18D3A11C0120022248
:20582C0004F0EFFFA71C5FEA00080FD0B91C0320022204F0E6FF80463A78B978FB78787886
:20584C0040EA0220288043EA0123338005F00AFAB8F1010F03D0A01C042105F0C1F84046AA
:20586C00BDE8F081903B002038B5042004F0A0FB1A4C022818BF03281FD1032000901648E8
:20588C0000214FF040521C2301F097FF17480068EFF3118380F3118815480421B1FA81F15C
:2058AC00401AC17F4A1E0129C27703D1206820F00400206083F3118838BD094D0A48094A88
:2058CC00296803686018B2FBF3F105F01BFB2868201805F013FB38BD00A00C40681E00205A
:2058EC0070B60000A086010088B6000084B60000D718002010B51A481A490078086820F046
:20590C00030040F00100086002F0DEFF01F04EFE0021154C154821600068C068014602207A
:20592C0088471349134A086820F0010008601068D4F8EC1FEFF3118480F311880E4B0F4868
:20594C001A680421B1FA81F1401A42F00402C17F1A60491CC17784F311884FF0FF3010BD43
:20596C00A03B00200440034040100940A00100108C21084084B60000681E0020D71800206B
:20598C002DE9F0411E4987684668086804F020FD38680024C0F810483968C1F80448D1F8EC
:2059AC00200820F01000C1F8200805F0C7FA154D8046287818B1042003F0A4F92C70404695
:2059CC0005F0B8FA387AFEF7E3FD06F1100005F06DFA06F12C0005F065FA307818B906F143
:2059EC00480005F05FFA06F1840004F0A9FD05F0A5FA86F8984005F09DFABDE8F081C0465E
:205A0C00783B0020A13B0020F8B50E46307A1D46144606AF400928BF082036D23888002846
:205A2C0018BF0B2031D10846694604F091F9012803D1002101202980F8BDBDF800004AF649
:205A4C0001410027401A15D0401E0BD0401E03D038460A27288017E002202880F068008830
:205A6C00208011E005202880F068016821600079207109E001F08CFC04480C3002782A8062
:205A8C00F1682046FFF7A2FC3846F8BD301A0020F8B505461E480068EFF3118780F31188BE
:205AAC001C4C20684FF0805640F080002060D6F88C014068014601208847D6F8B001006A82
:205ACC00014614208847286906F5C675810C14BF010C04212868406A024601209047D6F8CF
:205AEC008401006823210246002090472868C069014601208847206820F4C02040F48030DA
:205B0C002060206840F00100206087F31188F8BD84B6000000200940F8B5001D84B214F051
:205B2C00030002D0241A241DA4B204F0A7FC01461948102C47680160C8BF876838880022CC
:205B4C001646C30BDD0319D126B984420ADD3A46012617E01388C3189BB29C42138011DCFA
:205B6C00174618469FB1001B80B20428B4BF3C88385344F400443C803F1D08E080F40040A3
:205B8C00002680B2C71938880028DAD10027084604F016FE3846F8BDCC170020401E1CB54C
:205BAC0002D0401E2BD01CBD05F07AF81A4C40081AD32078FF2819D00120694603F014FE56
:205BCC009DF8000038B900200422014604F094FD4FF0FF3100E0012104F11000FFF7B2FA09
:205BEC009DF80000207006E0FF2020700120FF21024604F081FD002002F0C6FD1CBD022014
:205C0C00694603F0F1FD9DF8002004495000091D00EBC20008801CBD2813002028130020AC
:205C2C00401E1CB502D0401E28D01CBD05F038F8194C80081AD32078FF2819D001206946B1
:205C4C0003F042FD9DF8000038B900200422014604F03AFD4FF0FF3100E0012104F1100052
:205C6C00FFF770FA9DF8000020701CBDFF2020700120FF21024604F027FD1CBD02206946C0
:205C8C0003F022FD9DF8002004495000091D00EBC20008801CBDC04670100020701000201A
:205CAC002DE9FE4305460E46307890460AAF02281AD01949DFF8649070680C68102249465D
:205CCC0004F064FA0027494610B914B3012007E070681031102204F059FA70B9CCB10220BE
:205CEC0029464246A04714E070684278007842F6021100EB0220814201D00A2709E03988F5
:205D0C0001200091424601903146284601F02AFD07463846BDE8FE839419002090B30000AE
:205D2C0041F2A00010B5C5F20000D0F8781203680A0F03F0FF03802B28BF0023D0F8780246
:205D4C004BF69A11C0F30F344FF0FF30A14213D02431A14207D04BF62031A1421DD1E2B914
:205D6C000A3358B210BD12B1921E02D010BD0A2010BD143358B210BD521E0DD0921E04D00B
:205D8C00121F04D0521E04D010BD142010BD152010BD163358B210BD0A2010BD2DE9F0437E
:205DAC00ADF13C0D05F0F2F8184D1A4C002680462D1F183C684600213C22082305F06EF807
:205DCC0055F8041F6068A768069023680897002205910F480493694605F05CF8071C10D00F
:205DEC0004F04CFB8146384601F062F948B1484604F0E6FC241D761CDCD0404605F0B2F8CA
:205E0C0001E002F019FB0FB0BDE8F083C017002089AA0000D0AF00002DE9F0430E4691469B
:205E2C001D4607AF80461B214FF6FF72ADF11C0D03AB04F0D1F8059038B300210091BDF86C
:205E4C000C100191FF2402947C6802460DF1120340462946A047041C12D16889ADF810000B
:205E6C00700805D340464A4604A904F075FA05E03B7840464A4604A904F0B6FE041C05D0A8
:205E8C0004A81B2104F0DEFA00E01524204607B0BDE8F083002213460A46194671B510F0A4
:205EAC00030F0BD0002A82BF00F8011BB2F1010210F0030FF6D1002A08BF71BD11F0FF01CB
:205ECC0041EA0121042A18D341EA0141082A0FD30E46102A08D30C460D46B2F10F0312F00A
:205EEC000F0272C0103BFCD812F0080F18BF42C012F0040F18BF40F8041B12F0020F18BF15
:205F0C0020F8021B12F0010F18BF017071BDFEE7F8B5144686684268084602F10C0520388A
:205F2C0027D0401E21D0401E1CD123781549906E194300F07BFE90B93068B0F1804F14BFE4
:205F4C0023220B222178E86D03F0A6FFE86D95F84D1001F0B1FC207885F84D0010E04FF0CF
:205F6C00FF30F8BD6FF00100F8BD002085F86400F8BD29780020012908BF012085F86400B2
:205F8C000020F8BD002000802DE9F843804689461648194C144A016804F11400B2FBF1F178
:205FAC0004F0C4FF00284946404608BF002018D0124A0F4D11702978814211D02870206874
:205FCC0004F09CFE261D304604F038FD28783146012804BF07482061002004F0D9FA20600B
:205FEC000120BDE8F883C046A025260088B60000A23B0020AAB40000D83A0020A53B002098
:20600C00F8B50E46307A1D46144606AF400928BF082030D23888002818BF0B202BD10846C9
:20602C00694603F095FE012803D1002101202980F8BDBDF800004AF681210027401A13D087
:20604C00401E0BD0401E03D038460A27288011E001202880F068007820700BE002202880A4
:20606C00F0680088208005E012222A80F1682046FFF7ACF93846F8BD1FB5194B0C46014673
:20608C001046002289B1491E06D0491E23D1012C0DD1007818701FE0082C08D112490368CD
:2060AC000E310B604068486016E0062C01D0182212E0046803F10C010C60808888800824A0
:2060CC000094FF240194074C029498681C33FEF731FF024600E00222104600901FBDC046F7
:2060EC007C1B0020157A0000801B002070B50646F088F5680B28A5F108052CDAB0880B2806
:20610C0029DA04F0BBF9154CF28891000C3401EBC20161184968E1B104F052FB307928702F
:20612C00B0796870307AA870F188880000EBC1002018F1684068083003F092F9F1888800F3
:20614C0000EBC10024186068406804F0E3FE002070BD04F035FB6FF0020070BD341800209B
:20616C007FB5194C0B46002511461A4678B1401E06D0401E24D1012A0BD10878207020E086
:20618C00022A06D112480988401C018019E0122A01D0182515E004F10C0612223046FFF749
:2061AC0015F908200090FF230193084A0292A068314604F120032A46FEF7BCFE054600E090
:2061CC000225284600907FBDD81A00200D600000D81A00202DE9FC414FF0020816460F4674
:2061EC00054602E004F082FCA619002F08BF012028D001F04BFF20BB03F086FB08BB05F0E4
:20620C00FF04C4F58074BC4288BF3C1C8DF800808DF80350280C8DF80100280A8DF80200D5
:20622C0004F06CFC6846042103F056FB3F1B651928B93046214603F04FFB0028D2D004F04E
:20624C0055FC0020BDE8FC8170B5002124220823ADF1280D684604F081FE134C01256A46BF
:20626C0029468DF8185004F1140004F073FE0F48006801464FF44070884702F0B7FD261D97
:20628C00304604F0DBFB00203146257304F080F9074BFF221A700749206000220A7008B9EC
:2062AC0004F0F4FD0AB070BDD83A002078000010A53B0020A23B0020F8B50E46307A1D4641
:2062CC00144606AF400928BF08202CD23888002818BF0B2027D10846694603F039FD01281C
:2062EC0003D1002101202980F8BDBDF800004AF64121401A4FF000010DD0401E05D0801E7F
:20630C0003D008460A2128800CE001202880F0680078207006E006202880F0680268226070
:20632C008088A0800846F8BD10B54AF2000434214FF080521C23C4F20C04204602F022F943
:20634C00012826D0204634210122002302F01AF9002808BF00201DD08020C1F20000006855
:20636C00804703F085FD43F6643344F24022C2F20003C0F20F029C681968D860041BA1EB8B
:20638C0091016243120C8A4224BF1A60012001D21960012010BDFEE71FB5174B0C46014664
:2063AC001046002269B1491E08D0491E1FD1012C09D1134B5B1C0078187019E0012C02D1D4
:2063CC00F9E7062C01D0182212E0046803F10C010C608088888008240094FF240194074CEE
:2063EC00029498681433FEF7A5FD024600E00222104600901FBDC0461C1C0020C56200008A
:20640C001C1C002038B50079184CA0B904F036F82178002904BF6FF00704051C13D0491E79
:20642C00C9B2217029B904F0CBF9606802F02AFF18E0054613E004F021F805462078FF287A
:20644C0005D16FF00604284604F0BAF90BE0401CC0B20128207002D1606802F02EFF284642
:20646C0004F0AEF90024204638BDC0466823002000B540F21630ADF1140D6946FCF7B4FB08
:20648C0040F213300DF10201FCF7AEFB4FF4467001A9FCF7A9FB9DF800109DF80220BDF893
:2064AC0000009DF804308DF80610BDF802108DF8082002128DF80A3009128DF80720BDF8A9
:2064CC0004008DF8091000120DF1060206218DF80B000020FFF7D0FD05B000BDFEB5194CD2
:2064EC000546208C218B81420CDC618B814209DBA08B618C884205D1E08BA18C884208BFCE
:20650C0018271DD0052002F01DFA278B638BADF80270A28BADF80430E18BADF806200646D5
:20652C00ADF80810E08AADF80000684604F076FA071C05D104F1F0003146A57302F06EFDA7
:20654C003846FEBD2C0A0020F8B500B21D4616460F4603F0C7FA0FA494E80C00FDF7B0F8A2
:20656C000EA20CCAFDF7ACF80EA20CCAFBF708FE01F08EFE3060384603F0AAFE94E80C00C5
:20658C00FDF79EF809A20CCAFDF79AF801F080FE2860F8BD000000000000F03E0000000084
:2065AC0000A064400000000000004440000000000000594098B54268806851660B6808322B
:2065CC0013664B6853668B689366C968D166576E77B9D16D0B7C0168580040F00100C1F811
:2065EC000008D36E0220022B107012D30B2211E0D16D0368097C01274900C3F80018116E83
:20660C00177004684B1C13660978C4F80818016802200322C1F8042804F0D6FB98BD2DE979
:20662C00F041054615F8017B90460E461CE0B8F1000F05F101050BD0FF2C09D8022015F859
:20664C00011B401E41EA0424F9D101E0042C02D315F8011B00E0394630462246FFF71EFC3B
:20666C00A61901E006F8010B15F8010B8742F9D115F8014B002CE9D115F8010B2C780002BA
:20668C002418D4D1BDE8F08138B5054645210020FFF77AFC002808BF002029D001206946F5
:2066AC00022204F0AEF8041C1BD0BDF800000024C013C003B0F5004F08BF0124B0F5004FC2
:2066CC000FD100206946022204F09BF8041C08D0BDF80000BDF80010000240EA21202880CD
:2066EC0003E02846022104F07BF904F0BBFA204638BDFEE71FB5164B0C4601461046002283
:20670C0069B1491E08D0491E1DD1012C09D1124B5B1C0078187017E0012C02D1F9E7042CDD
:20672C0001D0182210E0006803F10801086008240094FF240194074C0294D8681033FEF7AC
:20674C00F9FB024600E00222104600901FBDC046B41C00203D6A0000B41C0020F8B50446A7
:20676C0004F0E0FB00F0A4FC054604F00FFC074604F0E4FB0146A2881148BBB263F30F06A2
:20678C0089B261F31F466030002130F80C7F5FB902804560A181A7688760686800252061C8
:2067AC00304604F00DF809E0974208BF6FF00205F6D0491C0B29E8D301F03EFE2846F8BD05
:2067CC00D41700201FB5164B0C4601461046002269B1491E08D0491E1DD1012C09D1124B4A
